:020000040800F2
:1000000010040020050100087D01000855010008CA
:10001000610100084D010008DD0200080000000039
:100020000000000000000000000000008101000846
:1000300051010008000000007F0100086D02000867
:100040001F0100081F0100081F0100081F01000810
:100050001F0100081F0100081F0100081F01000800
:100060001F0100081F0100081F0100081F010008F0
:100070001F0100081F0100081F0100081F010008E0
:100080001F0100081F0100081F0100081F010008D0
:100090001F0100081F0100081F0100081F010008C0
:1000A0001F0100081F0100081F0100081F010008B0
:1000B0001F0100081F0100081F0100081F010008A0
:1000C0001F0100081F0100081F0100081F01000890
:1000D0001F0100081F0100081F0100081F01000880
:1000E0001F0100081F0100081F010008DFF810D0E1
:1000F00000F01AF800480047FF020008AFF3008044
:10010000100400200648804706480047FEE7FEE747
:10011000FEE7FEE7FEE7FEE7FEE7FEE7FEE7FEE7B7
:100120007D020008ED000008064C074D06E0E0687F
:1001300040F0010394E8070098471034AC42F6D32E
:10014000FFF7D8FF080300082803000800BFFEE7F8
:100150007047704700BFFEE710B500F003F810BD10
:1001600000BFFEE710B500F001F810BD01480249DC
:1001700008607047530100080C000020704770476A
:10018000704710B500F002F810BD00000CB500205B
:10019000019000903348006840F480303149086095
:1001A00000BF3048006800F4003000900198401C07
:1001B0000190009818B90198B0F57F4FF1D1294806
:1001C000006800F4003010B10120009001E0002030
:1001D00000900098012843D12348006840F01000A7
:1001E000214908600846006820F0030008600846BE
:1001F000006840F0020008601A48406819494860E9
:100200000846406848600846406840F4806048609E
:100210000846406820F47C1048600846406840F476
:10022000E81048600846006840F08070086000BF31
:100230000C48006800F000700028F9D009484068B8
:1002400020F00300074948600846406840F002007B
:10025000486000BF0348406800F00C000828F9D14E
:100260000CBD00000010024000200240024800685F
:10027000401C0149086070470000002010B5134879
:10028000006840F0010011490860084640681049C4
:1002900008400E494860084600680E4908400B496E
:1002A00008600846006820F480200860084640681E
:1002B00020F4FE0048604FF41F008860FFF761FFE4
:1002C0004FF000600449086010BD000000100240BB
:1002D0000000FFF8FFFFF6FE08ED00E000BFFEE7BC
:1002E00002E008C8121F08C1002AFAD170477047FF
:1002F000002001E001C1121F002AFBD17047FFF767
:100300002BFF00BFFEE700002803000800000020CC
:1003100010000000E0020008380300081000002070
:1003200000040000F00200080000000000000000CF
:080330000000000000000000C5
:04000005080000ED02
:00000001FF
