:020000040800F2
:10000000600B002005010008390E00086505000896
:10001000450D00084D0200087D1C0008000000008E
:10002000000000000000000000000000E9110008CE
:100030005102000800000000C10E000891140008E1
:100040001F0100081F0100081F0100081F01000810
:100050001F0100081F0100081F0100081F01000800
:100060001F0100081F0100081F0100081F010008F0
:100070001F0100081F0100081F0100081F010008E0
:100080001F0100081F0100081F0100081F010008D0
:100090001F0100081F0100081F0100081F010008C0
:1000A0001F0100081F0100081F0100081F010008B0
:1000B0001F0100081F0100081F0100081F010008A0
:1000C0001F0100081F0100081F0100081F01000890
:1000D0001F0100084D17000879170008A517000830
:1000E0001F0100081F0100081F010008DFF810D0E1
:1000F00000F09AF80048004751210008AFF3008053
:10010000600B00200648804706480047FEE7FEE7F0
:10011000FEE7FEE7FEE7FEE7FEE7FEE7FEE7FEE7B7
:1001200031150008ED0000082DE9F05F05460020BC
:1001300092469B4688460646814640241BE0284658
:1001400041464746224600F05EF853465A46C01ADA
:10015000914110D311461846224600F045F82D1A59
:1001600067EB01084F4622460120002100F03CF8D1
:1001700017EB00094E41201EA4F10104DFDC4846C4
:1001800031462A464346BDE8F09FD2B201E000F86E
:10019000012B491EFBD270470022F6E710B513462B
:1001A0000A4604461946FFF7F0FF204610BD421CE0
:1001B00010F8011B0029FBD1801A704730B50B469F
:1001C000014600202022012409E021FA02F59D4287
:1001D00005D303FA02F5491B04FA02F52844151E5B
:1001E000A2F10102F1DC30BD202A04DB203A00FA42
:1001F00002F1002070479140C2F1200320FA03F37E
:10020000194390407047202A04DB203A21FA02F07B
:100210000021704721FA02F3D040C2F12002914040
:100220000843194670470000064C074D06E0E06899
:1002300040F0010394E8070098471034AC42F6D32D
:10024000FFF758FFB4E90008D4E9000800BFFEE753
:10025000704710B504462146022001F033FA10BD64
:10026000F0B500BF114800680A21B0FBF1F04FF073
:10027000E0218969401A0E49486008460268002357
:100280000A4800680A21B0FBF1F000211446A0FBE7
:10029000046701FB027103FB001332460448406807
:1002A000821843F1000310461946F0BD9400002067
:1002B000680000202DE9F0410246002500260020BC
:1002C00000230024002791F803C00CF00F0591F8DB
:1002D00003C00CF0100CBCF1000F03D091F802C069
:1002E0004CEA050591F800C0BCF1000F31D014684C
:1002F00000202BE04FF0010C0CFA00F3B1F800C025
:100300000CEA03069E4220D183004FF00F0C0CFA3A
:1003100003F7BC4305FA03FC4CEA040491F803C05C
:10032000BCF1280F06D14FF0010C0CFA00FCC2F80A
:1003300014C00AE091F803C0BCF1480F05D14FF09A
:10034000010C0CFA00FCC2F810C0401C0828D1D3E4
:100350001460B1F800C0BCF1FF0F34DD5468002018
:100360002EE000F1080C4FF0010808FA0CF3B1F888
:1003700000C00CEA03069E4221D183004FF00F0C0F
:100380000CFA03F7BC4305FA03FC4CEA040491F8A9
:1003900003C0BCF1280F05D100F1080C08FA0CF8D5
:1003A000C2F8148091F803C0BCF1480F07D100F1E6
:1003B000080C4FF0010808FA0CF8C2F81080401C35
:1003C0000828CED35460BDE8F0810000F0B50A469D
:1003D000002300240021002500F00046B6F1004F64
:1003E00002D11D4EF16901E01B4E7168C0F3034557
:1003F00083B200F44016B6F5401F08D121F07061B9
:10040000154E766826F07066134F7E6012E000F499
:100410008016B6F5801F06D1032606FA05F4A1431F
:1004200041F0706106E0460D360103FA06F6B1436D
:1004300041F0706122B1460D360103FA06F63143F0
:1004400000F00046B6F1004F02D1034EF16101E029
:10045000014E7160F0BD00000000014013B582B094
:100460000024684600F032F803990198441A002CE1
:1004700005DA9DF80200401EC0B28DF802009DF81A
:1004800002009DF80A10401A43F60951484304EB54
:100490008014204604B010BD0246107DA0B9012092
:1004A00010711388581C108002F11500C1547D2969
:1004B00001D1012010751088B0F5FA7F01DD02200E
:1004C000107502F115009060107D70472DE9FF470F
:1004D0000546002002900390FFF7C2FE06461D4825
:1004E000002302683046FFF71FFE80461948006867
:1004F0001949B0FBF1F44146684600F0FDFEDDE924
:100500000001CDE90201154898FBF0F030B1002060
:1005100002900390DDE9020100F0A2FFFFF7A0FEC8
:1005200006460C48002302683046FFF7FDFD914661
:1005300019462246E3174846FFF7F6FD03900848A0
:10054000DDE902128160C260DDE90201C5E9000156
:10055000BDE8FF879400002040420F008051010059
:100560008000002000BFFEE703B59DF802109DF853
:100570000120C2EB021201EB82019DF80020C2EBC8
:100580004213C3EB022201EB02100449884201DA54
:10059000014600E0014908460CBD00008051010001
:1005A0002DE9F04107460C4615461E462A2000F06C
:1005B000F1FA384600F0D2FA284600F0CFFA2B20A4
:1005C00000F0E8FA204600F0C9FA304600F0C6FA1A
:1005D0002C2000F0DFFABDE8F081002106E042F2B5
:1005E000107200BF531E1A1EFCDC491C8142F6DB50
:1005F00070472DE9F04706460F469046994600257C
:10060000444641E07A1B91B2321B90B24A4600F058
:1006100095F87A1B91B2321990B24A4600F08EF8E2
:100620003A1991B2721B90B24A4600F087F83A1B11
:1006300091B2721B90B24A4600F080F87A1991B2DA
:10064000321990B24A4600F079F83A1B91B2721909
:1006500090B24A4600F072F83A1991B2721990B20B
:100660004A4600F06BF87A1991B2321B90B24A46B2
:1006700000F064F86D1C05FB05F004FB040108FBA9
:1006800008F0814200DD641EA542BBDDBDE8F087B5
:100690002DE9FF4F85B081468A46002003908346AE
:1006A0000798A0EB09050898A0EB0A06CDF808907A
:1006B000CDF804A0002D01DD012705E00DB90027CC
:1006C00002E04FF0FF376D42002E02DD4FF00108CF
:1006D00006E016B94FF0000802E04FF0FF3876420E
:1006E000B54201DD2C4600E03446002004901EE0B7
:1006F000019A91B2029A90B2129A00F01FF80398F0
:1007000028440390B3440398A04205DD0398001BDE
:100710000390029838440290A34504DDABEB040B30
:100720000198404401900498401C80B20490611CE0
:1007300004988842DCDB09B0BDE8F08F70B5044650
:100740000D4616462B46224629462046FFF728FF2F
:10075000304600F003FA70BD2DE9F84305460E4619
:1007600017469846089C33463A4631462846009438
:10077000FFF78EFF43462A46314628460094FFF78E
:1007800087FF43463A46414628460094FFF780FFDC
:1007900043463A46314638460094FFF779FFBDE8B4
:1007A000F8832DE9F04706460F4614461D46DDF84E
:1007B00020A0681E83B2601E82B239463046FFF721
:1007C000EFFEB8460EE0B14606E0504600F0C6F92E
:1007D00009F101001FFA80F9A145F6DB08F10100DB
:1007E0001FFA80F8A845EEDBBDE8F08738B504466F
:1007F000D4B10121084600F075FB01211048FFF734
:10080000E5FD0121042000F06DFB4FF40440ADF83C
:10081000000010208DF8030003208DF802006946C7
:100820000848FFF747FD0AE04FF48060ADF800008C
:1008300004208DF8030069460248FFF73BFD38BDF0
:10084000000230000008014038B504462046FFF79A
:10085000CDFF204600F090FCC820FFF7BEFE4FF40D
:1008600000406B4908601420FFF7B7FE4FF40040CA
:100870006749091F08601420FFF7AFFE112000F040
:1008800089F91420FFF7A9FE362000F083F9322001
:10089000FFF7A3FE002000F071F93A2000F07AF98A
:1008A000052000F06BF9B22000F074F90C2000F084
:1008B00065F90C2000F062F9002000F05FF93320A8
:1008C00000F05CF9332000F059F9B72000F062F92C
:1008D000352000F053F9BB2000F05CF9192000F03E
:1008E0004DF9C02000F056F92C2000F047F9C22045
:1008F00000F050F9012000F041F9C32000F04AF95E
:10090000122000F03BF9C42000F044F9202000F050
:1009100035F9C62000F03EF90F2000F02FF9D02065
:1009200000F038F9A42000F029F9A12000F026F900
:10093000E02000F02FF9D02000F020F9042000F092
:100940001DF90D2000F01AF9112000F017F91320FD
:1009500000F014F92B2000F011F93F2000F00EF9FF
:10096000542000F00BF94C2000F008F9182000F09A
:1009700005F90D2000F002F90B2000F0FFF81F2010
:1009800000F0FCF8232000F0F9F8E12000F002F973
:10099000D02000F0F3F8042000F0F0F80C2000F074
:1009A000EDF8112000F0EAF8132000F0E7F82C2011
:1009B00000F0E4F83F2000F0E1F8442000F0DEF819
:1009C000512000F0DBF82F2000F0D8F81F2000F0B5
:1009D000D5F81F2000F0D2F8202000F0CFF8232017
:1009E00000F0CCF8212000F0D5F8112000F0D2F86A
:1009F000292000F0CFF8C820FFF7EFFD0548008858
:100A0000F0231A46002100900846FFF7CAFE38BDC1
:100A1000140801407400002070B504AC70CC70BDA7
:100A20002DE9FE470646894615469A46DDE90C48FB
:100A30000B9F1CE0182C09D153462A4649463046E4
:100A4000CDE90148009700F017F80DE0202C09D1FE
:100A500053462A4649463046CDE90148009700F002
:100A60000FF801E0BDE8FE87AD1C301986B228788A
:100A70000028DFD100BFF5E770B504AC70CC70BDC5
:100A800070B504AC70CC70BD2DE9F05F07468846A8
:100A900015461E46DDF82890002408EB0600401E8F
:100AA00083B27819401E82B241463846FFF778FD7E
:100AB000A24618E04FF0000B0FE019F8140000F008
:100AC0005DF8012101EB440119F8010000F056F82E
:100AD000641C0BF101001FFA80FBB345EDDB0AF14A
:100AE00001001FFA80FAAA45E4DBBDE8F09F2DE97A
:100AF000FE4305460F4616469846DDE90A94102C3B
:100B000003D0182C01D0202C0FD1204604EBD0713B
:100B1000491069438DB207FB04F087B2F02D00DD68
:100B2000F025F02F03DDF02701E0BDE8FE8310E0A3
:100B30000020CDE900940290327843463946284699
:100B4000FFF76AFF204604EBD07105EB61018DB21F
:100B5000761C30780028EBD100BFE6E710B50446DC
:100B60004FF4806004490860201200F01FF8E0B2E2
:100B700000F01CF810BD00001008014010B504463C
:100B80004FF4806002490860204600F00FF810BD65
:100B90001008014010B504464FF480600249086017
:100BA000204600F003F810BD1408014010B50446BB
:100BB0000121084600F07AFA204600F0C5FA00212B
:100BC000012000F073FA10BD38B5044694B101213C
:100BD000042000F087F94FF40060ADF80000102009
:100BE0008DF8030003208DF8020069460748FFF7DF
:100BF00061FB0AE04FF40060ADF8000004208DF8BE
:100C0000030069460148FFF755FB38BD0008014065
:100C100038B504462046FFF7D7FF0021012000F039
:100C200025F801F081F80021009800F001F838BDA6
:100C300013B50C4664B19DF8010001F089F89DF8E8
:100C4000000001F085F89DF8020001F081F808E04D
:100C5000002001F07DF8002001F07AF8002001F07A
:100C600077F80A2001F052F81CBD0000012802D0DC
:100C7000022818D10BE021B14FF400620B4B1A602F
:100C800004E04FF40062094B1B1F1A600CE021B115
:100C90004FF40062054B1A6004E04FF40062034B0E
:100CA0001B1F1A6000E000BF00BF7047140801401E
:100CB00038B500F049F81A4881680120884718487B
:100CC00001224FF41651C368022098471448016965
:100CD000012088471248416901208847104841682F
:100CE000012088470F48816A642088470D48026BBD
:100CF0000D48C168806890470A480121C26C0846C7
:100D00009047084809A1C26B022090470C48009008
:100D10000448A0231A462821046A0846A04738BD83
:100D2000C0000020D80000208000002068656C6CA6
:100D30006F20776F726C64203220210D0A00000052
:100D4000B421000800BFFEE710B500F019F806480E
:100D500006494860064888600648C8600648086139
:100D60000648486110BD000049080008C000002086
:100D700091150008151C0008110C0008FD1C000846
:100D8000184819490860194848601949164881608F
:100D90001849C160184901611849416118498161C8
:100DA0001849C1611849016218480F494862184939
:100DB0000D4881621749C1621749416317480A49C2
:100DC000086317490848816316480749486416496B
:100DD000054881641549016415480349C8631548ED
:100DE000C864704753020008D8000020A307000819
:100DF0003D07000891060008F305000859070008A0
:100E0000EF0A0008210A0008890A00087D1200087C
:100E100005120008EB110008CD0400086114000859
:100E20005D0400086D0C0008310C000891160008E4
:100E3000C5160008811C00087047000070B500212D
:100E400000230F22C47804B3154C246804F4E06432
:100E5000C4F5E064210AC1F10403CA40447804FAED
:100E600003F184781440214309010E4C0678A15502
:100E7000047804F01F050124AC4005786D11AD0025
:100E800005F1E025C5F8004109E0047804F01F05EC
:100E90000124AC40044D0678761145F8264070BD1B
:100EA0000CED00E000E400E080E100E002490143D5
:100EB000024A1160704700000000FA050CED00E0E6
:100EC0007047000029B1064AD2690243044BDA6137
:100ED00004E0034AD2698243014BDA6170470000A3
:100EE0000010024029B1064A92690243044B9A61FC
:100EF00004E0034A92698243014B9A617047000003
:100F00000010024030B500210022002400232D4DA6
:100F10006D6805F00C0121B1042905D0082923D101
:100F200005E0294D056022E0274D05601FE0254DB5
:100F30006D6805F47012234D6D6805F48034022548
:100F400005EB92421CB9214D554305600BE01D4D48
:100F50006D6805F400351DB11C4D5543056002E078
:100F6000194D5543056002E0174D056000BF00BFF5
:100F7000144D6D6805F0F0010909154D6B5C0568AD
:100F8000DD4045600F4D6D6805F4E061090A104DC4
:100F90006B5C4568DD4085600A4D6D6805F4605105
:100FA000C90A0B4D6B5C4568DD40C560054D6D6839
:100FB00005F44041890B074D6B5CC568B5FBF3F543
:100FC000056130BD0010024000127A0000093D00AA
:100FD000A8000020B80000202DE9F04104460D468D
:100FE000134800680A21B0FBF1F600233246204680
:100FF0002946FFF799F80F4908600D4800680A2153
:10100000B0FBF1F60023324620462946FFF78CF864
:1010100008484260064800680A21B0FBF1F0054923
:101020004968401A4FF0E0218861BDE8F081000076
:10103000940000206800002038B5044644B3012124
:101040000820FFF74FFF4FF42040ADF800001820B4
:101050008DF8030003208DF8020069461248FFF75F
:1010600029F94FF48050ADF8000010208DF80300EE
:1010700069460D48FFF71EF94FF48040ADF80000B7
:1010800048208DF8030069460748FFF713F90AE086
:101090004FF47040ADF8000004208DF8030069465D
:1010A0000148FFF707F938BD000C0140012802D0C4
:1010B00002280DD10BE021B14FF48052064B1A608B
:1010C00004E04FF48052044B1B1F1A6001E000E063
:1010D00000BF00BF70470000140C014021B102881E
:1010E00042F04002028004E002884FF6BF731A40CB
:1010F000028070470246002013890B400BB101208B
:1011000000E0002070478181704710B500220288FE
:1011100002F441520B884C8823438C882343CC88AB
:1011200023430C8923434C8923438C892343CC8953
:1011300023431A430280838B4FF2FF74234083833F
:101140000B8A038210BD000070B50446094D00BF34
:1011500002212846FFF7CEFF0028F9D02146284675
:10116000FFF7D1FF00BF80212846FFF7C3FF00280B
:10117000F9D070BD0038004030B585B00446002578
:1011800004B101252046FFF757FF14216846FFF7F9
:1011900003F801218803FFF795FE4FF48270ADF844
:1011A00002000020ADF80000ADF804000220ADF808
:1011B00006000120ADF808004002ADF80A0010203A
:1011C000ADF80C000020ADF80E000720ADF81000BF
:1011D00069460448FFF799FF29460248FFF77EFF5A
:1011E00005B030BD00380040704730B504460025DA
:1011F00004E04FF47A7000F005F86D1CA542F8DBAE
:1012000030BD00002DE9F04F83461A4800684FF4C6
:101210007A71B0FBF1F000FB0BFAFFF721F80646FC
:101220000F4623E0FFF71CF80D460446301B77EB12
:10123000050004D2B4EB060865EB07090EE00D4883
:1012400000680D4900FB01F84FF00009B8EB0608F3
:1012500069EB070918EB040849EB05094FEAEA7046
:10126000B8EB0A0179EB000000D300E0DAE700BF39
:10127000BDE8F08F94000020805101002DE9F04F6F
:1012800083461A4800681A49B0FBF1F000FB0BFADC
:10129000FEF7E6FF06460F4623E0FEF7E1FF0D46A8
:1012A0000446301B77EB050004D2B4EB060865EB6F
:1012B00007090EE00D4800680E4900FB01F84FF0E9
:1012C0000009B8EB060869EB070918EB040849EBBD
:1012D00005094FEAEA70B8EB0A0179EB000000D388
:1012E00000E0DAE700BFBDE8F08F000094000020C6
:1012F00040420F00805101000CB54FF4616291FB38
:10130000F2F2D2B28DF800204FF4616291FBF2F359
:1013100002FB13123C2392FBF3F2D2B28DF80120B0
:101320003C2291FBF2F302FB1312D2B28DF80220A1
:101330009DF80020182A02DA9DF8002000E018220B
:101340008DF800209DF801203C2A02DA9DF801204A
:1013500000E03C228DF801209DF802203C2A02DAB0
:101360009DF8022000E03C228DF80220DDE90023F8
:10137000C0E900230CBD10B500F002F810BD00005C
:101380000CB50020019000903348006840F4803094
:101390003149086000BF3048006800F40030009018
:1013A0000198401C0190009818B90198B0F57F4F42
:1013B000F1D12948006800F4003010B101200090FC
:1013C00001E0002000900098012843D123480068E4
:1013D00040F01000214908600846006820F0030032
:1013E00008600846006840F0020008601A4840683B
:1013F000194948600846406848600846406840F41B
:10140000806048600846406820F47C1048600846C8
:10141000406840F4E81048600846006840F080707A
:10142000086000BF0C48006800F000700028F9D088
:101430000948406820F003000749486008464068B2
:1014400040F00200486000BF0348406800F00C0014
:101450000828F9D10CBD0000001002400020024015
:101460002DE9F341DDE90001FFF77EF80446E517B9
:10147000064800680026A4FB002705FB007004FB5B
:1014800006011046FFF7A8FDBDE8FC81940000208E
:1014900002480068401C014908607047680000204D
:1014A00070B5034653B31E4800680A22B0FBF2F140
:1014B000B1F1807F01D301201DE021F07F40401E6B
:1014C0004FF0E022506150170F22002807DA14076E
:1014D000260E144C00F00F052D1F665503E014076F
:1014E000250E114C255400BF00204FF0E0229061E2
:1014F00007201061002090B100BFFEE700BF09483F
:101500000C38006800F4E06008490843001D0549F4
:101510000C390860BFF34F8F00BF00BFFEE770BDFE
:101520009400002018ED00E000E400E00000FA055F
:1015300010B51348006840F00100114908600846E2
:101540004068104908400E494860084600680E4946
:1015500008400B4908600846006820F480200860B5
:101560000846406820F4FE0048604FF41F00886081
:10157000FFF701FF4FF000600449086010BD000054
:10158000001002400000FFF8FFFFF6FE08ED00E04B
:1015900010B504462046FFF783FF10BD70B5044622
:1015A000062C12D2DFE804F01103070B0F100C48D1
:1015B0000C4908600BE00C480A49086007E00B483A
:1015C0000849086003E002E001E0002070BD00BFB0
:1015D00020210448006800F01DF905462846F5E77B
:1015E00000380140700000200044004000480040E6
:1015F00010B50446062C12D2DFE804F01103070BE5
:101600000F100B480B4908600AE00B4809490860B5
:1016100006E00A480749086002E001E000E010BD6A
:1016200000BF20210348006800F0D2F800BFF6E7B1
:101630000038014070000020004400400048004095
:1016400070B50446062C12D2DFE804F01103070B34
:101650000F100B480B4908600AE00B480949086065
:1016600006E00A480749086002E001E000E000BF28
:1016700000BF0448006800F089F90546284670BD9F
:101680000038014070000020004400400048004045
:101690002DE9F04180460D4614462646B6F5FA7F00
:1016A00001DD4FF4FA76002705E038467F1C295CFF
:1016B000404600F015F8301EA6F10106F5D10120D4
:1016C000BDE8F08170B505460C462046FEF76FFD7B
:1016D0000646324621462846FFF7DAFF70BD000075
:1016E00070B504460D46062C12D2DFE804F0110353
:1016F000070B0F101148124908600AE01148104901
:10170000086006E010480E49086002E001E000E0D1
:1017100070BD00BF00BF40210948006800F06DF8AF
:101720000028F8D029460648006800F034F9402126
:101730000348006800F04CF800BFE9E700380140BA
:1017400070000020004400400048004070B50125B2
:101750002846FFF723FF60B12846FFF771FFC4B2A8
:10176000044951F825002146FEF796FE2846FFF76A
:101770003FFF70BD4C07002070B502252846FFF7DB
:101780000DFF60B12846FFF75BFFC4B2044951F872
:1017900025002146FEF780FE2846FFF729FF70BD91
:1017A0004C07002070B503252846FFF7F7FE60B10F
:1017B0002846FFF745FFC4B2044951F825002146E9
:1017C000FEF76AFE2846FFF713FF70BD4C070020A6
:1017D00001F40072B2F5007F00D100BFCA4302805D
:1017E000704721B1828942F40052828104E08289EB
:1017F0004DF6FF731A408281704702460020B1F512
:10180000007F00D100BF13880B400BB1012000E026
:101810000020704770B502460024002300250020F8
:1018200040F66A16B14200D100BFC1F3421501F083
:101830001F03012606FA03F3012D02D196893340D6
:1018400006E0022D02D1168A334001E0968A334029
:101850000C12012606FA04F41688344013B10CB1B8
:10186000012000E0002070BDF0B5034600240026F2
:101870000025002040F66A17B94200D100BF184683
:10188000C1F3421401F01F06012707FA06F5012CE7
:1018900001D10C3004E0022C01D1103000E01430F2
:1018A0001AB107682F43076002E00768AF4307607B
:1018B000F0BD00002DE9F04786B005460E46002435
:1018C000A24600BFA1460027B08900B100BF2F4645
:1018D0002C8A4CF6FF700440F08804432C82AC89BB
:1018E0004EF6F3100440B0883189084371890843EB
:1018F0000443AC81AC8A4FF6FF400440B0890443F6
:10190000AC8201A8FFF7FEFA1F48874202D1DDF83A
:1019100010A001E0DDF80CA0A88900F4004040B15F
:101920000AEBCA0000EB0A1031684900B0FBF1F87D
:1019300007E00AEBCA0000EB0A1031688900B0FB2F
:10194000F1F86420B8FBF0F004012009642101FBE8
:101950001089A88900F4004040B1322000EBC90092
:10196000B0FBF1F000F00700044308E0322000EB88
:1019700009106421B0FBF1F000F00F0004432C814A
:1019800006B0BDE8F08700000038014001468888B5
:10199000C0F308007047C1F30802828070474FF41B
:1019A0001651016000218180C18001810C2141819B
:1019B000002181817047000070B586B005460E4653
:1019C000002406B1012401210846FFF78BFA01210A
:1019D0000420FFF787FA21464FF48040FFF782FA90
:1019E0004FF48060ADF8140004208DF8170005A9AD
:1019F0002048FEF75FFC4FF40070ADF8140018208B
:101A00008DF8170003208DF8160005A91948FEF778
:101A100051FC6846FFF7C3FF00950020ADF80400B5
:101A2000ADF80600ADF80800ADF80C000C20ADF8DC
:101A30000A0069461048FFF73DFF4FF4E060FFF7EA
:101A400035FA25208DF8100000208DF811008DF852
:101A500012008DF8134004A8FFF7F0F9224640F277
:101A600025510548FFF700FF21460348FFF7B9FE5F
:101A700006B070BD000801400038014070B586B066
:101A800005460E46002406B1012401210846FFF751
:101A900029FA01210420FFF725FA21464FF40030EE
:101AA000FFF710FA0820ADF8140004208DF8170095
:101AB00005A92148FEF7FEFB0420ADF8140018200C
:101AC0008DF8170003208DF8160005A91A48FEF7B7
:101AD000F1FB6846FFF763FF00950020ADF80400B6
:101AE000ADF80600ADF80800ADF80C000C20ADF81C
:101AF0000A0069461148FFF7DDFE4FF4E060FFF78A
:101B0000D5F926208DF8100000208DF81100022054
:101B10008DF812008DF8134004A8FFF78FF92246C4
:101B200040F225510548FFF79FFE21460348FFF785
:101B300058FE06B070BD000000080140004400409F
:101B400070B586B005460E46002406B10124012179
:101B50000846FFF7C7F901211020FFF7C3F9214616
:101B60004FF48020FFF7AEF901212748FEF72EFC45
:101B70004FF40060ADF8140004208DF8170005A99B
:101B80002248FEF797FB4FF48060ADF81400182050
:101B90008DF8170003208DF8160005A91B48FEF7E5
:101BA00089FB6846FFF7FBFE00950020ADF80400B6
:101BB000ADF80600ADF80800ADF80C000C20ADF84B
:101BC0000A0069461248FFF775FE4FF4E060FFF720
:101BD0006DF927208DF8100000208DF811000320EA
:101BE0008DF812008DF8134004A8FFF727F922465C
:101BF00040F225510648FFF737FE21460448FFF71B
:101C0000F0FD06B070BD000010001400001001408F
:101C10000048004070B504460D461646012C06D01B
:101C2000022C0DD0032C14D0042C1CD11AE0314608
:101C30002846FFF7C1FE0D480D4941F8240013E086
:101C400031462846FFF71AFF0A48094941F824009F
:101C50000AE031462846FFF773FF0748044941F878
:101C6000240001E000E000BF00BF70BD280100209B
:101C70004C070020340300204005002000BFFEE791
:101C800070B505460C46012D18D1AA201A490870D6
:101C900007204870022088700020C8700846047130
:101CA00004F1B3004871002605E01348815D02206D
:101CB000FFF716FD761C062EF7DB1AE0022D17D172
:101CC0007E200D4908700420487003208870002091
:101CD000C87008460471EF204871002605E00648E8
:101CE000815D0220FFF7FCFC761C062EF7DB00E08E
:101CF00070BD00BFFCE700007600002010B5044670
:101D000021464FF41650FFF7B9FE10BD00BF002169
:101D100000E0491C42F210729142FADB011EA0F170
:101D20000100F4D17047000000B54FF4006007498E
:101D300008604FF47A70FFF7E9FF4FF40060034941
:101D4000091F08600A20FFF7E1FF00BD14080140E9
:101D500030B50246134600212AE00A2003FA01F4B6
:101D600004F080047CB14FF40064134D2C6000BF7C
:101D70000446401E032CFBDC4FF400640E4D2D1D69
:101D80002C60401E12E04FF400640B4D2C6000BF2D
:101D90000446401E082CFBDC4FF40064064D2D1D4C
:101DA0002C6000BF0446401E032CFBDC4C1CE1B23F
:101DB0000829D2DB30BD0000100801400FB4054BEC
:101DC00010B503A9044A029800F018F810BC5DF899
:101DD00014FB00003F210008BC00002002E008C8FE
:101DE000121F08C1002AFAD170477047002001E095
:101DF00001C1121F002AFBD1704700002DE9FF4FDF
:101E00008BB088460546002606E025280BD0DDE984
:101E10000D1290476D1C761C28780028F5D10FB064
:101E20003046BDE8F08F0024A146A2460122AE490B
:101E300000E0044315F8013F203B02FA03F008429A
:101E4000F7D128782A2810D06FF02F022878A0F137
:101E50003001092915D809EB890102EB410144F051
:101E6000020400EB01096D1CF0E758F8041B5FEA5F
:101E7000010903D544F40054C9F1000944F00204F7
:101E80006D1C28782E2817D115F8010F44F0040492
:101E90002A280ED06FF02F022878A0F130010929EE
:101EA0000AD80AEB8A0102EB410100EB010A6D1C22
:101EB000F2E758F804AB6D1C28786C280FD006DCCC
:101EC0004C2817D068280DD06A2814D104E0742853
:101ED00010D07A280FD10DE044F400140AE044F445
:101EE000801401E044F440146978814202D104F581
:101EF00080146D1C6D1C2878692865D006DC0028CC
:101F00008DD0632827D0642806D15DE06E2808D0E4
:101F100073282AD0752877D0DDE90D129047761CFA
:101F2000E0E0C4F30250022809D003280DD0D8F80D
:101F3000001004280DD00E6008F10408D2E0D8F893
:101F40000010F217C1E90062F6E7D8F800100E8021
:101F5000F2E70E70F0E718F8041B8DF8001000206F
:101F60008DF80100EB46012003E058F804BB4FF068
:101F7000FF3061074FF0000701D40AE07F1C57458E
:101F80000DDA8742FADB1BF807100029F6D106E0CC
:101F90007F1C8742FCDB1BF807100029F8D1DDE924
:101FA0000D23A9EB07008146214600F0B1F830442B
:101FB000C61904E0DDE90D121BF8010B90477F1EE6
:101FC000F8D22146484688E058F8040BC4F3025181
:101FD0004FF00A0B032900D100B2042900D140B20E
:101FE000002802DA40422D2102E0210505D52B21EF
:101FF0008DF82410012104E006E0E10710D0202133
:10200000F6E708AF089113E058F8040BC4F3025147
:102010004FF00A0B032900D180B2042900D1C0B2CD
:102020000021EEE75946FEF7C9F8303107F8011DE7
:102030000028F7D1ADEB070000F1200B600702D5B7
:1020400024F4803401E04FF0010ADA4502DDAAEB06
:102050000B0000E00020824600EB0B0108980144D1
:10206000A9EB01000A90E00306D4DDE90D23214627
:102070000A9800F04DF806444FF0000908E009A95D
:1020800011F80900DDE90D12904709F10109761CEC
:1020900008998945F3DBE0030CD5DDE90D232146E2
:1020A0000A9800F035F8064404E0DDE90D1230200E
:1020B0009047761CBAF10001AAF1010AF5DC05E0AF
:1020C000DDE90D1217F8010B9047761CBBF10001FA
:1020D000ABF1010BF4DC0A982146DDE90D2300F099
:1020E00005F806446D1C97E6092801002DE9F0412A
:1020F000044600251E461746880404D405E03946E8
:102100002020B0476D1C641EF9D52846BDE8F0813B
:102110002DE9F041044600251E469046C80301D52E
:10212000302700E02027880404D505E041463846E2
:10213000B0476D1C641EF9D52846BDE8F08170B526
:1021400004460D46E1B20220FFF7CAFA204670BDF0
:102150001CB5FEF7ADFD14200D4908700220487033
:102160001420887012E00B48416B68468847094884
:10217000816A322088470748816A64208847064878
:10218000837A427A017A05A0FFF718FEEBE7000098
:1021900065000020D80000208000002054696D6593
:1021A000203A202532642F2532642F253264207393
:1021B000200D0A004A6A4A4A4249424942294209D4
:1021C000424A42294A49420942284229422942298F
:1021D000422942294228420842084208420839E876
:1021E000420839E8420939E839E839E84208420842
:1021F00042083A08422941E84229422939E842087E
:1022000039E7736C6B6C39E742285AEA6B4C420829
:1022100039E73A084A4939E739E839E839C839E845
:1022200039E831C839E839C839E831E739C739C739
:102230003A0831A731A7318739C739E839C831A7FA
:1022400031C739E84A4939C8422931C7318639C8C6
:1022500039C739C7420841E839E731C739C731C7FB
:1022600031C74A6939C739E839C731C7318639C7F3
:1022700039C831C74A6A39A739C8318739C739C718
:1022800031C739E731A639A731A739E739C742083D
:1022900031A731C731C729A631C739C731A742088D
:1022A00031A631A731A7424931A6298731C74269F2
:1022B00031E77C0F843039C731E731A731C731A707
:1022C0003A0839E731A731E739E83A0829862985FC
:1022D00031E731E731A7298629C7298631C7298601
:1022E00029A6298631C729C731C7298531C729863B
:1022F00029A631A74A2942294A4A42294A4942295C
:1023000042294A49422942294229420939E84A498F
:1023100042294229422942293A08420842283A08D9
:10232000420839E841E83A083A0839C74209420800
:102330003A08422942284249422842283A0842089B
:102340005AEB8C4F3A07422839C67BEE42074A497E
:1023500039E839C842083186420839E839C839E8CD
:1023600039E839E8420939C731A739C7424931E864
:1023700039E839C739C731A73A0839C739E839C701
:1023800031A739E84A4A39C731C739E731A739C8CF
:1023900039C831A7422931A731A631A739E831E838
:1023A00031A74208420839C831E7318631C739C8F8
:1023B00031A731A74209296642294A6A2986526A09
:1023C00039C731A63A0831C752AA31A631A739C751
:1023D0003A0839E731C7318631C739E84A4931A768
:1023E000318631C74A4939C731C731A7420829A6C2
:1023F00031C74228632C6B6E420839C731C731861A
:102400003A0739E731C731C731E731E731E731C73B
:1024100031A729C6420831C731C729A631C631C7FD
:102420003A0831C731C731C631E729A631E729C695
:1024300031A639C742294A4942293A294A2942291B
:102440004229422942294249420842094229420975
:10245000420939E842293A083A084229422839E82B
:102460004208422939E842294208420839E8424AEA
:1024700039E8422942294A4942084228420842286A
:102480008C50630A5AEB4A48840F4A68420839C79D
:1024900039E73A0739E7422931A6420841E931C80C
:1024A00031C7424939C739C739E839C831C739E86E
:1024B00039C831A739C831C731A739E839C73A080F
:1024C00031C839C7422939C739C731A739C831C7D7
:1024D00039C74208424939E7298639C731A731C788
:1024E00031E731A739C7420839E739C731C731C7A2
:1024F00031A739C739E831A7422939A74A6A29865D
:1025000039C731C7318631A631C731A7420829669C
:1025100039E731A631A631C739C74A6A39C731C749
:1025200029863A0839C731A639C7424931A739C87F
:1025300039A82945738D73CE420839E7420839E638
:1025400032074B0BB618B596634D3A0731C731C702
:1025500031A729A631A731A7298631C7298629861F
:10256000298629A731E729A629C629A6298631E780
:1025700031C6298642294A6A4A4A3A084A494229C2
:1025800042294229422942294A4942294A494229A3
:10259000422939E841E842084208422842084209F3
:1025A0003A0839C8420839E83A083A0839E842098D
:1025B00039E84229C639BE185ACB42294207634B33
:1025C0006B8D39E75AAA6B6C6B6C4228422939E74C
:1025D000420839C739C739E739E839E839C839C74E
:1025E00031C831C739C839E839E839C831C739E89D
:1025F00039E831C831C731A739C731A731A739C741
:1026000031C731A739E831A639C839C739C831C708
:1026100039E84A69422939C83A0831C731C7318790
:1026200039E84A2939A739E839E839E839C731C6DC
:1026300039E74A4939E831C731A6298631A739C86F
:1026400031C739E731A74A49298631A739C739E85F
:1026500042083A083A0831A74A6A39E731A639E709
:1026600031C7422931A731A63A08298631A631A7B8
:1026700031A731C76B6D630B634C39E739E64227ED
:1026800073EF5B2C742FC69994F352AA31A731E7EC
:10269000298631A731C731E829A731C7298729A75A
:1026A00029A631C7298631E731C72186298629869F
:1026B00029C631C742494A494229422942293A0892
:1026C0004229422942294A294229422942294229AA
:1026D00042094208420841E8420942294209424966
:1026E000420939E839E84209420839E742294208F3
:1026F0004208630CA5756BAE94D3FFFF5AEB844F71
:102700004228420852A97BCD39E739C739E841E868
:1027100039E739E831C739E8422939C739C739C7F4
:1027200039C839C739C73A2939C8420831C7424977
:1027300039C7420839E839C839E831A739C739E813
:102740003A2939E831C731C739E831A739E739A71C
:10275000420831A74A2939C739C739C731C739C7EC
:102760004A4939C731C739E739C731C731C731C7D6
:1027700031A739E831C74A6939E73A0831C731A783
:1027800039C731C74A6A31A739E731A739E739E78D
:10279000318631A739E7422931A631C72986296513
:1027A00039C731C731A639E731C731C731C729A782
:1027B0003A083A083A086B8D842F31A63A073A0650
:1027C000A534EFBE74108CF284B1849031E729A750
:1027D0002986320731C729A629A6296629862166B6
:1027E00029C729A629A631C7298631A7298729A75C
:1027F00031E731A6424A4A294A6A422A42294229F5
:10280000422842094229422942293A0942294209D9
:10281000422939E8422942084209420839C839E8C0
:1028200039E839E842084209420942294229422945
:1028300042085B0B6B6DFFFF845073AD842E5AEA28
:1028400042084208840F4A4839C739E739E8422923
:1028500039E8422939C831A739C742084A6A39E8F4
:1028600031C739E839E73A0939C731C739C831C8FA
:1028700031A739E839C739E831A739C839C739C765
:10288000422939C839C739C831A739C831A739E70A
:102890004A6939E8420831C731A731C739C739C752
:1028A000528A39C74A4A31C731C739E73A082986B7
:1028B00039E839E8424839C74A6939C731C731A7C9
:1028C000318639C739C739C739E731C639E831C721
:1028D00031A731A74A4931A739E829C729864228B3
:1028E00031C739E84A6931A731C731A731A729462D
:1028F00031C8318639E77C0F73AE6B6D842F842F1E
:102900008C90636C52EBD6DB8CB184504A8931C613
:102910003A0829A6298631E731A7318629862986F2
:1029200029C631C639E831C729A6216629A729A6B3
:1029300029A631A74229422942294A4A4229422945
:10294000422942493A08422942294229420842087A
:1029500042294229422942094208420842084229A2
:102960003A0939C739E84229420839E83A083A08A9
:1029700039E78C508C708C7083EE6B4A6B8C840EB4
:102980004A68632B5ACA420839E831C739E839C75F
:1029900039E839C739E839C739E839A739E83A0891
:1029A00039C839E8422939C839E731C731C739E868
:1029B00031C739E83A0831C739C739C731C839C7CB
:1029C0004A6A39C739E8420939C839C839E839E8A3
:1029D0005AAB39C8420839C839C839C739C839C7A4
:1029E00039C739E83A0831E739E731C739E739C734
:1029F000420831A63A074A6939C731A731C731C6FB
:102A000031C64A8A39C73A0839C7424839C731A757
:102A100031A739C739E739E839C72986422839C784
:102A200039C74A8A39C739C731A7298639C731A674
:102A300031C731A75B0B424873EE634C5B4B8C7024
:102A40008C6F8C8F846F7C0E94D17C0E5B0B31E786
:102A5000320729C639A72986298631C731C731A748
:102A600031C729862987298629A629E729A6298603
:102A700031E729C742294A49422942494229424964
:102A800042294249422939E84229424939E8420863
:102A9000422939E84209422942083A0839E84209FC
:102AA000420839C83A0842084229420839E842082F
:102AB000420939C77BCD7BCD736C8C2E6B6C7BCE82
:102AC0007BEE630A39C7420839E839E7422839E71B
:102AD000420839C839E839E839C739C8422931A725
:102AE00039C739C8422939C739E839E739E739E8F8
:102AF0004A6A39E8422939E839E839C831C739E83A
:102B000039E739E739E84A4A39C839C831C739C8D5
:102B10004A6A31A739E731A731C739C839E842498C
:102B200039E739E831C739E739C839E739C739E80A
:102B300031864A493A0839C731C73A0839C731C7D7
:102B400039C731A73A0839E84A4939E731C739E77F
:102B500039E731C7420831A739C7528A39E7298690
:102B600052AA298639C739C739C7298631A631A65D
:102B70003A0831C731A731A66B8D73ED636B52A94B
:102B80008C8F73CC634B94B05B0973CD31C631A687
:102B900029A5320831E731C629C731C7214529A700
:102BA00031A729A729A631C72986218629A63A084F
:102BB00032083A284A49422A4A6A42294A4A42295C
:102BC0004A2A4229422942294209422942094229E4
:102BD0003A0839E84229420942093A0842084208BB
:102BE000420941E839E83A0839C8422941E839E858
:102BF0004228420842074A697BEE738C6B6C4A6834
:102C0000840E4A68420839E739E839E839C739C8D3
:102C100039E8420839E839E841E831C739C739E8C5
:102C20003A0831C739C739E839E839E739E839C8E6
:102C300039A739C84A4931C739C739E831A84209E3
:102C400031A731A74249424931C739C831C739E8AC
:102C50004A493A0839E839C839C739E739E831A764
:102C60003A0831C739C731C731C739E739E84A4966
:102C70004A693A0731C739E831C731C7318739E87E
:102C8000420839C739E74A8A39E731A6424942083A
:102C900039C739C731A631C7528A39C731A752AAB5
:102CA00031A639C831A739E731A731A731A74A6A18
:102CB00039E731E739E739C66B8C73CD846F8C9077
:102CC000842E844F7BCD63296B8C6B8C31A6298637
:102CD00031C729A729A6298629A629A731A729A668
:102CE00029C729A7298529A531A73A0831E739E756
:102CF00029C73A084A4A422A422942294209420936
:102D000042294A4A4209422939C7420842294229EE
:102D1000422942094229422939E84249420841E808
:102D200039E841E8420839C83A0839E8424939E700
:102D30004208422842285AAA7BAD630B4A684A4897
:102D4000738C42283A0839C839E839E839E839A794
:102D500039E831C731A639E839E839E831C73A08E6
:102D600039E831A731A74A6A3A0831C731C839E88A
:102D700031A742084A4939E839C8296631A841E8EB
:102D800039C8422831C7420831A739C739E8420853
:102D90004A49420839E731E7318639C74A493A0892
:102DA0004A49422839A731C731C731C739E74208F4
:102DB00039C7422831C739E731C731C739C741E878
:102DC00039E839C7528A31C731C7420731A631A71E
:102DD00039C731A631A74A6931C731C7528A39E7A5
:102DE00031A631C7318741E8318539E739E739C73D
:102DF00031C7318639E731A639E66B8D7C0E52A991
:102E0000844F632A844F842F632B4A68298629A61E
:102E100031C731C731C7298529A631C729A62985D8
:102E200029A731C73207298531C7298629A629C78D
:102E30003A4832074A4A422942294229422942292C
:102E40004A49422942094229422942294209422942
:102E5000422842294208420942094208420841E800
:102E60003A083A0841E9420939E8420841E839E8B4
:102E700042084228422883EE5AEA632C630B83EE11
:102E800039E739E84A49420839C739C739E841E8DA
:102E900039E731C7422939E839E831A739C839E873
:102EA000420839E839C839E839E839E839C739C753
:102EB0003A084209422939E739E739E739C739E899
:102EC00039E84A6A31A639C739E831A739C84229F1
:102ED0004A8A39C731C731C739E831A739E74A4982
:102EE00039E7420839C739C739E739E839E839C716
:102EF000528A39C739C739C739E739E7318639E7DF
:102F000039E74A8931C739E84A8A39E83A0839C77E
:102F100039E731A74A6A39C731C64A6931A739C783
:102F200039C731A731A739C739E83A0839C739A7AE
:102F3000420839C731C731A739C673AE73AD73AD17
:102F4000634C31C531C631A631C731A6318631A6B1
:102F500031C631C7298631852985320829A729A696
:102F6000298631A729862986296629A629C631E717
:102F7000218631A74229422942294A494229422928
:102F8000424942294229420942294208420942094A
:102F900042294228420842093A084208422939E8AF
:102FA000422939E8420939E83A0841E8420842082A
:102FB0004A4941E8528983EE39C74A286B4C62EB93
:102FC000420839E839C8422839E739E839C831A711
:102FD00039C7318639E839C839E839C839C839E8D4
:102FE00031C739E739E739C739E839C739E839E846
:102FF00039E731A7420839E739E839E839C739E80C
:1030000039E8528A39E831A739C739E831C739E890
:10301000526A39C739E831A739C74A4939C74A69B5
:1030200031C7420839C731C739E739C74A6A420749
:1030300039C739C739C739C739C739C74A6A39E8BB
:1030400052AA3A0739E74A49318639E731A631A70A
:1030500031C739E739C739E84A6939E739C739C764
:1030600039E839E7528A39E731C731A63A074208C9
:1030700031A631C631A73186632C6B6C5AEA842F96
:103080004A4831C731C731C731A631A631A731A669
:1030900029C631C731C739E8318631E729A72986E2
:1030A00029A631C7298629A631E8296521652986FF
:1030B00029A6296642294A2A422A424A4208420946
:1030C0004229422942294229420842293A09420812
:1030D0004229420842093A08420939E842293A0994
:1030E0003A083A094209422931C7420941E839E818
:1030F00039E842077BEE4A68420939C7738D39C601
:10310000420839E839C839E84A6A39E831A739C884
:1031100039E839C839E84A2939E839E839A739C8D6
:1031200031C7422839E839E839E8422839C739C86F
:1031300039E839E839E839C8420831C741E839C8BF
:1031400039E84A4941E839C831A739E8420939C75D
:10315000528A39E739C731C839C639E841E839E711
:1031600031A731E739E831E739C74A49420839E739
:1031700039C739E739E739C739C739E731C74A8A23
:1031800031E731C74A4939E839E839C731C631C76B
:103190003A0839C839C84A8A39C731A631C739E827
:1031A0004228424931E731A731C731C639E739C72B
:1031B000318631A739E7422831A631C66B4C7BEE08
:1031C00031A539C731A6318631C739E7318629455E
:1031D000298629A629A731A7296631A731C731A792
:1031E000298629A7298631C629A62986318631C78D
:1031F00031C631C64A494209422942294229422957
:1032000042294229420942493A09422939E84229D8
:10321000422939C742293A28420939E84209420875
:10322000422939E8420939E841E842294A4A39E85D
:10323000420852697BCD39E842296B4C5AEA422850
:10324000420839C839E839C739E84A4939E731A766
:1032500039E839C731C839E831C741E839E839E8D0
:1032600031E831C739C731C84A6A420839E839C735
:1032700039E831A74A4939C839E831C739C739C7A8
:1032800039E842084A4A3A0831A731C7420939E8C1
:10329000528A39C741E831C84A4939E839E739E73C
:1032A00039E731A739E739E739E7420839E7420812
:1032B00039E839C731A739C739E84A8A4A6939E84C
:1032C00039C752AA31C739C731C731C7318631A68C
:1032D0003A0839C74A6931A739E841E831864A6A6C
:1032E00031C739C739C731C639E8318639C731A73F
:1032F00031A7422939C731C731A62965632B6B8DA8
:1033000039E739C7420839C731A631A631A6296540
:1033100029A631E731A729A731A731C731A62986C8
:10332000298629A6298631E729A629A631E831C7A9
:10333000298631A742294249422942294249422944
:103340004229422942294229420942094229420985
:103350003A093A083A083A0839E83A08420839E995
:103360003A083A093A093A083A083A09420842083A
:103370004228840F6B6D4A6A4A497BCE39E842087D
:1033800042084229420839E839E839E8422939C770
:1033900039C839E839E839E8424939E739C839E8FC
:1033A00039E839E8422939E839E839E839E839E8CB
:1033B00039E839C739E739A7422931C739C839C887
:1033C00031C731C74229420831C731C739C839E846
:1033D000528A39E839C839E831A64208422839C743
:1033E000420839E739C739C731C64A4939C739E7C9
:1033F00039C739E739C731A74A494A69420831878D
:1034000039C739E739C739E731A739C739C739E784
:1034100031C74A6A39C739C831C6420839C731C7C6
:1034200031C631C6420831A739C739C731A731A6DD
:10343000422839C731A73A083A0839C76B6D39E6CF
:10344000632C31A631A7298631C739C731A6298611
:10345000298631A631C731A731C731A731A731C776
:103460003A0829A731A731A731A629A629872966B5
:1034700029A639C74A2A42294229420942294A49EA
:103480004A2A4229420942294209422939E8420985
:103490003A0939E942093A2939C83A0842083A084A
:1034A000422939C742294229420839E842084208DC
:1034B0004A697BEF39E7528A630B6B2C420839E883
:1034C00039E842084208420839C839C831C7422998
:1034D00041E931A739C839C739E839E7420839C85D
:1034E00039E839C739E84229420839E831A739E8CB
:1034F00031E839E839E8422939E8420839E731C783
:1035000031C739C739E8420839E739E839E841E8CD
:103510004A6939C739C74A6939E73A07422939E858
:1035200039E739E739C84A49528A31A6420839E7AA
:1035300039C739C739C731A64A4931A739E74208DF
:1035400039C739C739C739C731A6318641E839C7C4
:10355000422831C7318731864A4931A739C739C72F
:103560003A0739C631A631A731A639C739C739E775
:1035700031A731A62986420831A731A66B6D4A488A
:103580007BCE31C731A731A631A631A6298731A715
:10359000318639E731A731A729A731A731A7298576
:1035A000298629862966298631C729A6298731A730
:1035B00031C629A64229422A4A6A42294229420999
:1035C00042294229422942084208422939E842094F
:1035D0003A083A094229420842094209420839C8D0
:1035E0003A0839E83A094229528A41E84A484207EA
:1035F0007BEE630B420839E773AD39C7420839E8FF
:1036000041E831C74208420939C839E739E739E8A2
:10361000422939E839C739C839C8420839E839C7B1
:1036200031C739C831C731A739C84A4939E839C81B
:1036300039E731C731C73A0839E839E839E839C8D4
:1036400039E839E839C739E739E74A2939C739E864
:10365000424939C739C739C7420831A739E839E77C
:1036600039C739E7420842084A493A0839C739C7D1
:1036700039E739C731A752AA39C8420839E739C7EB
:1036800039C739E739C731C739C74A4931C739C797
:1036900039E731A64A6931C639C739C739E731A791
:1036A00031A631A639C739C731A64A4931A631A753
:1036B00031A639E831A639C739E731A64208632B6C
:1036C000630B39C731C731C731C631C631A631871F
:1036D00031C731C731A7298631E731A631A729A6DD
:1036E00029A629A631A639E731A731C7216529A620
:1036F00029E731E74229424A424A422942294209FE
:1037000042493A0942093A093A09420842093A0942
:103710004209420841E842293A0839E839E839E8DB
:1037200039E93A094229EF9EFFFF94B24A6952896A
:103730007BEE39C6420852AA5AEB39C7420939C74B
:1037400039E739E839E842083A0839E839E831C850
:1037500039E8420939C839E839E839E839C839E877
:1037600039A739C839C839E74228420839E839C782
:103770003A0839C731C839C84229420939C731879F
:1037800041E831C7420931C739C742083A0839E828
:103790004A4942084A4939C739E839C739E831A6A0
:1037A00039C739C739E839E739C739C739C739C7D8
:1037B00039E84207420839C74A6939E739C739C782
:1037C00039E739C739C739C7422831A74A6939C7E4
:1037D00039C7422831A639C739C739C731A639C7D1
:1037E00031A631C639C731A639E7318631C63186AF
:1037F00039C7298631A639A731A7318631A65AEBB8
:10380000632B422831C631A731C739C831A631C729
:1038100031C631E731A6296531C7318631C729C79D
:1038200029A729A7298629A6214531C731872986B5
:10383000298629A742294A2942294229422942099F
:1038400042293A094229420942293A093A094229B8
:10385000420941E83A0841E939E839E839E839E804
:1038600042293A0973CF8450FFFFA5558C718C71A2
:10387000630B4A4839E773AD420741E839E839E854
:1038800039E839E839C839C839E841E839C839C7A9
:1038900039E839E83A0839E839C839C8420939C736
:1038A00039C839C831A739C739C8420839E839E8B1
:1038B00039C731A631C742084A4939C839E841E811
:1038C0004A4939C74A493A0839C731A739C839E797
:1038D000422839C739E7420839C739E731C739E7DC
:1038E00039E742083A0739E839E739E839C739C7CB
:1038F00031C739E739E7422839C739C739E839C705
:1039000039C739E739C74A6939E739E731A74A6919
:1039100039C731A631A639E839C731A631A631A653
:1039200031A731A6422831C739C739C7420839C73C
:1039300031A729A731A731A631A739C739C7632CC9
:103940004A69632B31C639C731A639C731E72145EA
:1039500031A731A6318639C731A6318631A72986EC
:1039600031A631C7298631A731A731A7216529663C
:1039700031A631C73A09422942294229420942095E
:1039800042294229422942293A08422942293A0831
:1039900042084209420939E839E839C839E839E8C2
:1039A0003A094209738D7BEE5B0CBE587C0F840F85
:1039B0006B2B630B62EA6B2B39E7420839E841E86D
:1039C00039E839E839E841E839C739E841E839E800
:1039D00039C831A831C739E839C839E839E839E890
:1039E00039E839C731A739C839E839E8420839E830
:1039F00031A739E839E84A494A4939C739E839E845
:103A00004A6A4209420839C7422839E839E839E8A0
:103A100042084A6939E7318739C739E839A7422965
:103A20004A69422839C7422939E739C739E739E7AE
:103A300039C742284A2939E639C739C739C739C78A
:103A400039C739A74A6939C7420839E739E739E739
:103A500039C739E739E739C731A639C731A631A6A1
:103A600031A64A6931A6318631A639C631A639C791
:103A700039C731A731C639C731A6318631C67BEF88
:103A800031A573AE39A639A731A63A0742483A277D
:103A900031C731A631A7298639C731A631A7298672
:103AA0002985298629A629862986298631A7298656
:103AB00031C731C73A293A29424A422942094229A3
:103AC00042294209422942094229420939E8420968
:103AD000420942094209420842083A0839C839E80D
:103AE00039E93A0939E78C70842F7C0E5AE973ADB5
:103AF000843039E77BCD4A6939C8420839E839C88A
:103B000039E839E739E831E839C839E839E839E8D6
:103B100039E839C831C739E839E831C739C839A770
:103B200039C839E839E831C839E839C8528A420811
:103B300039E831A731C74A49420839E739E839C776
:103B40004A494A4939E839C739E839E839C839E7CB
:103B500042083A07422839E839E74A4939C8420851
:103B60004A4839C739C739C7420839E841E839E70F
:103B700039C74208420831A639E739C739C739C7BA
:103B800039C74A4839C7420839E739C639C739C73A
:103B900039E739C739C739C739C731A639C74A499B
:103BA00039E739C631864A4831A6318639C7318668
:103BB00031A631A639C739C7318631A639C76B4C12
:103BC00041E67BEE318539C64A89636DC659EF9E61
:103BD00073EE296531A631A631A631A6318631C7EB
:103BE00031A629A631A739C7298629A631C7298632
:103BF000298629864A6A42494229422A422942297B
:103C00003A094208422939E842094209420942096F
:103C1000420942293A0942093A083A08420939E870
:103C200042094209422942088430842F738C736C04
:103C3000736C39E7738D39E742284208420839A787
:103C400039C8420839E839C8420839E8420831A77A
:103C500039E839C739C839E839C739E839C831A727
:103C600039E839C839C831A8420931C839E7422989
:103C700031C831C739E84A6A42294A2931A742087E
:103C80004208422931C731A731A641E839E83A084C
:103C90004A69420839E839C839E7422839C7420831
:103CA00039E739E74A6A39E739E739E839C739E89E
:103CB000422839C739C739E739C639C631A739E784
:103CC000420739E74A4939C731C739C639C739C701
:103CD00039C739C631A631A639C63186422831A640
:103CE000318639C639C6318531C631A631A6298615
:103CF00031A639E731A739C739C631A629866B4CB9
:103D0000526873AD31A531C59D13638D638C63AD6E
:103D10008471632B39C731A631C6298629A6298625
:103D200031A631A72986318631A631A629A731C708
:103D3000298629A7422A4229420942293A094A49A1
:103D40004229422942293A2942093A083A0941E8D6
:103D50003A0939E8420939E83A0842293A0841E97A
:103D6000422942093A0839E841E84A28738D5AC97C
:103D70004A48630B4A6841E84208420841E839C8AA
:103D800039C839E839E839C839C839E839C739E8AC
:103D900039E839E839C839C739C739C739E839E89E
:103DA00031C739C839C839E739E831A739C8422994
:103DB00039E839E839C74208422931A739E839E8F2
:103DC00039E839E839C84209420839C739C739E7FB
:103DD00039C7422839E839C839C739E7422839C7CD
:103DE0003A0839E739E741E74A4939C7420839E72C
:103DF00039E739E739E739E739C739E739C74208D9
:103E00004A48420839C739C74208420839C731C64B
:103E100039C731A639C631A64A4939C731A739C78A
:103E200039E731A631A631A631C631A639C731A648
:103E300031A731A631A631A64208422839C731C57B
:103E4000632B52A97C0E73CE8C91FFFF8CB38C91A7
:103E50007C2F94F2296531A639E739C729A629852F
:103E600029A631A731A729A63186298631A731A7EE
:103E7000298621864249422942294229422942096A
:103E80003A294209422939E8422942093A29422974
:103E90003A093A093A0939E8420939E839E839E88A
:103EA000420842084209422839E852AA630B6B4C87
:103EB0005AEA73AD39E739E841E839E841E84A6937
:103EC00041E839E839C739E939E839C739C731A78D
:103ED000420831A739C731C831C831A741E839E8AC
:103EE00039C74229422939C839C839E839E842294D
:103EF00031C739E84208420839E839E839C839E8B1
:103F000039C739C739E84A6A4A4939C739C84249BD
:103F100041E8422839C739E839E74A4939E739E7FA
:103F200039E731A739C7422839C7420839C742079C
:103F300039C739E739C731C639C739E739E74A6977
:103F400039E739E739E7420839C739C739C739C7C7
:103F500031A639E731A64A4931A631A639E739C633
:103F6000296531A631A631A631A631A631A631A6E2
:103F700031A639C7424839C731A631A639C72964A5
:103F80007BED73CC8C90842F7C0E73CC52CA94D270
:103F90007C2E94F2298531A631C731A62166296588
:103FA0003186298631A62965318629A72966298681
:103FB00029A729854229422942293A093A29424A10
:103FC00042494229422942293A0942293A084229CA
:103FD0003A0839E83A09420939E842083A084209F8
:103FE00042084208420839C742086B6C4A284228F6
:103FF000738D62EA420839E7420839E839E839E85E
:1040000039E8420939E839E839C839E839C831A707
:1040100039E83A0839E739C739E839E839E839E899
:1040200039E839E839C839E839E839C839C839E8E8
:104030004209422939C73A0839E839E84A4939C8B2
:1040400031A639C739C8422939C739C739E83A08CA
:1040500039E7422839E839E84A49420839E739C797
:1040600041E842284A6939E84A4939C74A6939E783
:1040700039C739C739E839E739E74A4839C739C74D
:1040800039C7420739E739C731A739E739C639C7D0
:1040900031A639E739C739C739C6422831A731C7F0
:1040A00031C639C739C739C631C6318539C7420823
:1040B00039C731A639C731A631A639C739E73185A5
:1040C0007BEE4A478C50844F840D7C0D7BCD738CE6
:1040D00073CD73CD31A531A631A7318639E731864D
:1040E00031A6296531A731A6296629862145296689
:1040F000298631A642493A29424A3A093A084229D0
:10410000422A420942093A093A08422942294229E7
:1041100042293A083A09420939E839E83A08420995
:1041200039E8420842084209420873AE31A7420802
:10413000738E528A42084A49420839E839E839E818
:104140003A084209422941E839E839C839C739E80B
:1041500039E839C8420839E839C739C731A839E8D8
:10416000422931C74A4A41E831C839C739C839C735
:1041700042094A4931C839E839C839C739C741E81D
:104180003A0839C839C839C739E839C74A4931A75F
:1041900039C74A2839C839C74A6939C739C739E7D9
:1041A00039E742084208420839E739C739C739E7D1
:1041B00039E739C739E739C74208420831A642080A
:1041C00039C739C731A639C739C739C739C739C718
:1041D000422831C639C739E739C731A631A631A7D8
:1041E00031A631A631A731A64228422831A631A7EF
:1041F00031A63185422839C7318631A6318639C684
:1042000073AD31A58C4F7BCD840E6B6B7BAD8C4F2A
:1042100052687BCD31C631C6298631A731A631C758
:1042200029A629652986298631A62985298629A6D0
:10423000318621454229420942293A0942293A094F
:104240003A293A09422942293A083A083A083A09E9
:1042500042094209420942093A0839E839E839E88D
:1042600042083A0841E9420952AA6B6D39E842090D
:10427000738D39C739E839E84A29422939E839E8DC
:104280003A0839E839C739E8422931C839E839C824
:1042900039E839E839C739C839E839E831C839C89F
:1042A00039C839E839C7420839E839C839E839C75F
:1042B00039C831C73A0831C739C739C839E842283F
:1042C000422941E839C8422839C739E739C7422865
:1042D00031A6420839C7420839E739C739E739C733
:1042E0004A6939C7420839C639E74A48422839C7B6
:1042F00039C739E74A4939C639C7422831A639C7CB
:1043000039E739E739C731A739C731A639E7420854
:1043100039E731A739E739C731A639C739C739C7AE
:1043200031A64A4939C731A631A631A731A631A6EF
:10433000318631A631A631A6318631A631A629644F
:104340006B4B52C973CD4A876B8B738C6B6B7BAC99
:104350006B6B422731A6298531A639C72986298664
:1043600029A62986296629A62986298531A7318685
:1043700031A631A64229422A42094229422942094C
:104380003A093A093A093A093A083A08422939E811
:10439000420939E83A0942093A0842084209420802
:1043A00039E839E839E942096B4D632C420839C7CD
:1043B000632C39E839E8420841E839A7422939E84D
:1043C00039E8420839E841E839E8420939E839C8AA
:1043D00039C739E831A739C842083A0831C839C85D
:1043E00039E839C8420939E841E839E839C839E8D3
:1043F0004A4A39E8422941E83A0839E839E8424965
:10440000420839C739E839E839E84A49422939E7E1
:10441000318739C74A6939E731A6420839E74A483E
:1044200039C74A6939C739E7422831A739E739C757
:104430004208420839C74A48422839C739C739E7CC
:1044400039C739C731C739C731A6422831A639C75C
:1044500039C739C73187318631A731A639E74228B4
:1044600031A6318631A631A639C739C731A639A65A
:10447000318631A631A631A731C631C6296442271B
:10448000630B4A68842F634B31A531A531A529649C
:1044900029A531A5298539C731A62986214529862F
:1044A00031A7298731A6298629C72986298631A7D8
:1044B000298729863A093A09422942293A293A099B
:1044C00042293A083A29422942293A0939E83A0860
:1044D00042293A093A094208420942093A0942097D
:1044E00039E839C839E841E87BCE4228528A630C62
:1044F00042283A0839E839E839E839E839E8420920
:10450000422939E839E839C831A739E839E8422978
:1045100039C839E839C839C839E839E839E839E8F3
:1045200039E839E839E839E8420839E839E839C87A
:1045300039E8420939E942293A0839E831C83A08E4
:1045400039A739C7420839E831A639E8420839C7DE
:1045500039E84A2939E731A639E739E7422939E705
:1045600041E739E739E739C739E7420839E74228EF
:1045700039C739C6422839E731A639C739C739C7DB
:1045800039E739C739C739C7420839C739E741E878
:1045900039E739C731A63A07420839C739C739C799
:1045A00039C631C631A731C631A531A631A6296534
:1045B00031A631A631A631A63A0739E639C631A56A
:1045C00062EA5AC9738C318531A631C6318631C64B
:1045D00031A631A63186298629653186298629A604
:1045E00031A6298629652986298631A731C731A6B2
:1045F000298629454229422942293A0A4209422A62
:1046000042293A093A093A083A0942293A0942291B
:104610003A093A093A293A0942293A08422942090B
:104620004209420939E8422973AE39E839C7738E25
:1046300039E741E839E839E839E8422939E839E821
:1046400039E841E8422939C839C7420939E839E827
:10465000420939E839C739C839C831C8420842085F
:1046600039E839E839E831C84A49420739C839E9EF
:1046700039C93A0939E839E839C839E83A0939E82D
:1046800039E84228420839E74A49422839E839C717
:1046900039E7420839C8422839E7420842084A48FF
:1046A000420839E739E84A4939E74A4939C739E719
:1046B0004228422839C739A639C739C739C731A670
:1046C00039C63A07420841E739C74A4939C739A6C6
:1046D00031A6424839C739E739C739E739C731A662
:1046E000318631A6318631863185298631863186FB
:1046F000318631A64228420831A63186318531867D
:10470000630B41E6738C31A631A631A6318631A602
:10471000298631C729A6298631A5318621452986D2
:104720002965298629452986298631C731A6298602
:1047300029862965422A4A4A422942294229422A8F
:10474000422942293A093A083A093A0942094229D2
:104750003A093A093A093A093A083A084208422914
:10476000422939E839E852AA5AEB3A0839C7632C8A
:10477000420839E839E8420839E839E839E84208B6
:1047800039E839E839C839E8424939C839E831C81F
:1047900039E839E8422939E839E839E839E839E8C7
:1047A000422931C839E839E839E84229422939E94A
:1047B00039E93A0839E939E93A0842084208420930
:1047C00039C74229420839E8422839E739E739C769
:1047D000420839E739E84A494208420839C739C727
:1047E00039E839C742084208420839E7420839C760
:1047F0004228420839C739C739C739C739C741E7DD
:1048000039E7422839C741E741E74207422841E7F3
:1048100039C731A639C741E731A639C731A639C7EB
:1048200031A631A631A631A631A731A631A64A4913
:1048300039E739C631A631A631A639C639C731A6FE
:104840005ACA31A5738C3185318631A631863185BE
:1048500029A62986298531A631A631862986298669
:104860003186298631A6298631A629862986296698
:1048700029863186422A422942293A09422A422A75
:1048800042293A094209422942093A094209422980
:104890003A2939E83A083A093A08420839E731C86A
:1048A000632D4A4A39E762EB42283A285289630C61
:1048B0003A08420839C839E839C839E839C839E806
:1048C00039E83A0839E839E839C74208420939C8AD
:1048D00041E841E839C8420939E839C739E839C8F7
:1048E00039E8420839C839E839E839E84229420943
:1048F0003A083A283A0939E93A093A093A0839E8C6
:104900004208420839E74A094A4941E739E742285B
:1049100039E739E741E742084A4939E839E839E8EF
:1049200039C739C74A283A073A08420839E74228BE
:1049300039E839E739C639E73A0839C739C639C7D6
:10494000420739E74A485269420739E739E74207DF
:1049500039C739C7318639A639A631A631A631A65D
:1049600031A639A639C739C631854A4839C6318694
:10497000318631A639C731862986318631A731A6DD
:104980005AEA39C6738D318531A631A63186318612
:10499000318631A639C7318629A7298631A629A6AD
:1049A000296629A6298629A62965298621452986D9
:1049B00029A631A7422A3A09424A42093A294229FC
:1049C00042293A0942293A093A293A293A0939E960
:1049D000420939E93A083A0839E842286B6DD6FBB2
:1049E000C6798C9294D27BCE52A9630B52AA42080C
:1049F00039C741E839E839E839E839E839C839E8E8
:104A000039C839C739E839C839C839E839C7420817
:104A1000422939C839E839C839A7422939E839C89B
:104A200039E839C8420931C839C939C93A0842098F
:104A30003A083A093A093A0A420A42093A09420945
:104A400042084228420839E839E739E74A4939C774
:104A500039C7420839C7422839E739E739C739E742
:104A6000422842284208420739E739C7422839E735
:104A700039C739E739E639E739C741E742073A0725
:104A80004A48420741E739E741E739E739C639A6DD
:104A900039A639A739C639A639C639A639C631A6C5
:104AA00031A631A6420831A631A631A531A631A6DC
:104AB00031863186318731A6318631A631863185FE
:104AC0005AEA39E673AD29853186318631A63186B9
:104AD000318631A631A6318621862986318629A6DE
:104AE00031A629A629662125298631A631A631A617
:104AF00029A62986422942294209422A3A094229FD
:104B00004229422942294209422A39E93A0939E827
:104B10003A0939E939E83A083A0942297BEFAD55B3
:104B20004A8AD6FB7BCE73AD6B6D5ACA630B4228A3
:104B3000422939E839E839E839E83A0839E839C723
:104B400039E839E839E839E839E839E839E839E85D
:104B500039C84A49420939C839C739E83A084209C7
:104B6000420931C839E8420839E939E93A093A29AC
:104B7000422A3A0A4A4B424A3A09422A422A4209FE
:104B8000420842084208420939C8422839E83A082E
:104B9000420839C74228420739E739E84208420843
:104BA00039E7420839E739C739E741E739E739C614
:104BB00039E841C739C741E741E74A4841E7422759
:104BC00041E74A2839E739E73A0739C739C741E6A3
:104BD00039C641C739C639A639A639C639C631A63C
:104BE000422739C639A739A631A631A639C731A619
:104BF00031A631A631A631A631A631A631A631861D
:104C00005AC94A47630A2964296531A631A6318603
:104C1000318629662986294529862986318729866C
:104C2000214529863186298631E829652966296644
:104C300029A731A64229422A42294229420942098A
:104C400042293A093A093A093A093A093A093A0924
:104C50003A093A083A0942093A093A0952AA842F0C
:104C600083EF73AD5AEA6B4B73AE31C7630B4208E7
:104C700039E841E842284A293A0839E839E841E860
:104C800039E839E839E739C839E839E839C839C77E
:104C900039C839C839C842293A0939E839E839E800
:104CA000420939E839E839E83A0939E93A093A2A4A
:104CB000422A422A73AF73CF73AE632D4A4A4A0920
:104CC0003A083A08420842084208420841E84229A4
:104CD000420839E74228420839C74A49420842286F
:104CE0004208420839E739C74208420839C739C77C
:104CF00039E7420742074A2842074A4841E7420744
:104D000041E74A064206420742073A0639E741C6EA
:104D100041E739C639C639A641E7420739A639867F
:104D200039A631A639C631A631A631A7318631A6BA
:104D30003186318631A63186318631A6318631A65B
:104D400052A931845AC9318531A631A631862965E7
:104D500031A6318629652986296631A631862966DC
:104D6000298631A7298631C72986298631A7296650
:104D7000298621453A09422942294229422A3A09EB
:104D800042293A093A0842293A2942093A093A0994
:104D90003A093A0942093A08420939C842085AEB25
:104DA0006B6C842E5AA9630A73AD39C7528A4208C4
:104DB000420841E839E839E831C74A49420839E848
:104DC00041E939C739E839C839E839E839C839E833
:104DD00039C839E739E839C839E84A6A39E839C899
:104DE00039E839E942293A093A09420A3A0A3A2B9A
:104DF0004A8C636F6BD073B073AF6B8E52AB4A4A01
:104E00003A093A0842284208420842084208422821
:104E1000420839E7420842284208422841E842084D
:104E2000420739E739C741E8420739E739C742083D
:104E300041C741E74A284207420741E741E741C7E6
:104E40004A074206420741E6422739E541C549C6BD
:104E500041E641E64A07420739C639C641C641A77D
:104E600039A631A631A631A631A63186318631A6C2
:104E700031863186318631A6318631A6318631A61A
:104E800052A93185630A2985296531A631A6318663
:104E9000298629862986296631A7298629A6296592
:104EA0002986298629653186298631A6298629867B
:104EB000214529863A49424A4209422A3A093A0991
:104EC0004209420942293A093A08422942093A0963
:104ED00041E93A093A09420939E84229420939E8DF
:104EE00039C74A486B4C5AA9632B5AEB420841E830
:104EF00039E8420939C83A0939E839E839E839E87E
:104F00004209422941E839E839E839E839E839E81D
:104F100039E839C839E839C839E839E839E84A4957
:104F2000420839E839E93A093A0A3A2A4A6C4A4CBD
:104F30004A4C73F194D4B5B76B8F6BD05AEC528B4B
:104F40004A0942093A0842084208420842083A0817
:104F500042074207420842074A28420839E741E827
:104F600039E739E742084228420742074207420729
:104F70004A0741E7420741E741E741E641E64A0780
:104F800049E649E6522772C0E5C5DD648AE151C2AF
:104F9000520649E641C641E741E639A639C6398697
:104FA00031A639C7318639C731A631A63166318677
:104FB000318631A53186318631A6318631A639C692
:104FC0005ACA31856B6C318531A63186318631A65E
:104FD000318629853186318631862965298629865B
:104FE00031A6296631A62985298629A72986296619
:104FF000298629C63A293A093A093A293A093A0941
:10500000422939E8422942293A093A0839E942084D
:105010003A093A0939E839E83A0839E83A083A08E1
:105020003A0839E7738D422752A95ACA42284228C2
:1050300042294208420839E839C839E83A0939C7EB
:1050400039E83A08420842083A0839C739E839C706
:1050500039C839C839A739C739E839C839E839E80A
:1050600039A74A4A39EA39E9422A422B422C52AE40
:105070005B2FFFFFFFDFFFFFFFFF63B0632E5AAB25
:10508000422942283A0842084228422941E8420877
:10509000422742074208420841E739E742084228CE
:1050A00042074A484227420841E7420741E7420790
:1050B00042064A0741E641E641E641E641E64A0644
:1050C00049E55A47C586FF43FEA0FE20E540D4E3EC
:1050D00061A05A0541E5420641E639A639A631A547
:1050E000318539A631A639E731A6318631A6318618
:1050F000318531A5318531863186296531A63185E5
:105100005AEA2964632A31A531A631A63186298657
:1051100031A6318631A631862985298631863186A8
:1051200029862986296631A729862986296529861F
:1051300039E731A63A293A093A293A294229422936
:1051400042293A293A094209420942293A093A09C7
:1051500039E93A093A0939E842093A0942093A086B
:1051600039E839E76B6C420839E86B4C420839E89A
:1051700041E839E8422942084208422942294229A5
:105180003A0839C839E839E839C839C84208420903
:105190003A0839E839C839C839E839E839C839C866
:1051A00039C839E939E84A4A422A422B4A6D52CE77
:1051B000FFFFCE9A8C93A535FFFFC6596B4E5ACC94
:1051C00042084A49420842084228422842094A29DC
:1051D000422842084208422842284A2842274227B9
:1051E0004A484A2741E741E741E64A0741E64A077C
:1051F00041C641E641E74A08396541E649E75206BA
:10520000520562A0FFCEFFA7FEA0FE20ED80E54084
:10521000D4E0BC2249A341E541C539C639C631A60F
:1052200039A631A639A639A73185318531C631A7CE
:10523000318631A5318531863186318539C629449B
:105240005AEA29845AC939C631A531A5422839C735
:1052500031C63186318631A629A62986318629862E
:1052600031862986296531862966296631C731A7A5
:105270002965318742293A2942494229422942294E
:105280003A093A093A0942093A093A093A093A09FE
:1052900042093A093A0939E93A0839E83A0841E84D
:1052A00042084A48630C420939E7634C420839E82E
:1052B00041E8420839E839E7420839E84229420919
:1052C00039C742084208422942294209420839E8BE
:1052D0003A084209420839E839E839C839E841E86A
:1052E00039C83A0939E939E9420A4A4B4A6EA516E2
:1052F000FFFFFFFFFFFFFFFFCE9ADF1D6BB05AAB32
:10530000422942484229420942284A29422941E881
:10531000422842284A484A484A484A484A284208B5
:105320004207422841E741E74A0741E742074A0767
:1053300049E749E749E74164B46851E35207520637
:105340006265FFD1FFCFFF42FEA0FE20F5E0EDA099
:10535000DD20D4C0B42349A341C541C739C639C6ED
:1053600039C6318539A6398639A631A631A63166C6
:10537000318639C639A639E74A4941E739C639E69F
:1053800052A84A475AC94A0739E76B4CEF7D422871
:105390003A2731A6318631A631A629853186318654
:1053A00029A62986318631862966298629662966B5
:1053B00031A631A742093A293A2A422942293A0913
:1053C000420942093A093A0942293A0942293A0965
:1053D00042293A093A0939E842093A093A084208A1
:1053E000420952AB5AEB422939C7630B39E839E815
:1053F00041E839E839E839E839E839E839E841E895
:1054000039E8420839E84208420842083A0839E8CF
:1054100039E84209420942294209420941E93A0868
:1054200039E839E939E939E9420A422B4A8DFFFF67
:10543000FFFFFFFFFFFFFFFFBE18B5F973F05AAB88
:10544000528A4A29422842284A294A094A28422897
:1054500052AA5ACA52CA4A684A284A2842084207E7
:10546000420742074A274207420742074A0741E7E5
:105470004A274A065206728469C0D4E65A265A263A
:105480005A61FFF3FFAAFF40FEA0FE40FE00F5C0F8
:10549000ED80DD40D4E0C46241C241C541E641E651
:1054A00041E741E741E6420739C639C639A53185AA
:1054B000318531A631A639C639C739C631A639A5D5
:1054C0005AEA52A86B6C632BEF7D5B0C634C5B4C10
:1054D000632B634C31A6318639C7318629862986EC
:1054E000298529662985318629652986298629867F
:1054F00029A62986422A4229422942294229422AAA
:10550000422A4229422A39E93A093A09420942091A
:105510003A093A093A093A08420839E842093A0888
:1055200039E85289528952AA528A5ACB420841E834
:1055300039E841E841E839C8420839E839E839E84A
:1055400039E839E839C739C839E839E839C839C7D5
:10555000420842084208420839E842084208420923
:105560004A494A2A3A094209422A424B4A6DFFFFF8
:10557000BDF87BF17C12FFFFFFFFADB873B05AEBB3
:10558000526A4A284A294A494A494A494A49632C9F
:105590005AEB5AEB5AEB4A884A274A084A284A28C3
:1055A00042074A074A084A074A274A0649E649E69F
:1055B0004A0652065A056A007A60DD245A255A26A0
:1055C000D64DFFF4FFA8FF60FEC0FE80FE20FE0067
:1055D000F5C0ED80DD20D4E0BC23518249C54A07E7
:1055E00041E7420741E641E641E739A639A6398657
:1055F0003186318531A631A629653186318539C597
:105600006B2B39C573AD634B6B8DFFFFEF7D638DE6
:105610006B6C8C5031A63186296529A6318631669E
:105620002985318631A631C631862986298629A663
:10563000298631A6422942293A093A294229422A91
:105640003A0942093A093A293A093A0942093A0912
:105650003A0942093A0942293A093A0939E842081D
:1056600042084A6942083A086B4D4A4939E841E81C
:1056700039E839E739E839C739C839E839E839E864
:1056800041E839E839E739E839E839C839C839C86B
:1056900039C839E839E831A739C839E839C839E8AB
:1056A00041E9420942294A4A4A4B4A6B52AEFFFF3E
:1056B000F7BF6BB2B5B8FFFFADB78CB373AE5ACBC3
:1056C00052694A284A284A28422842285AEB630B42
:1056D000630A632B630B5AEA52684A484A284A27EE
:1056E000522852284A0752075227522652065A6613
:1056F00062455A2362017220F601E562BC44CCC4C3
:10570000EE45F6A8F6C4FE81FE40F600F5E0F5C0D1
:10571000EDA0EDA0E560DD20D500C482498249C638
:1057200039C639C639C639A53985398639A63165AC
:1057300031A531853186318631A5318531854A489B
:10574000630B4A684A8873CD7C2E6B6C5B0B4AC92D
:105750006B8C73CE31A629863186318631862986B7
:105760003186296631862965298529652965298635
:1057700031A629654229422A422A3A0942293A2970
:105780003A093A2942093A293A093A0942293A0991
:105790003A093A093A093A0942093A0942293A09C1
:1057A00042295ACB39E7422973AE420842084208DF
:1057B00039E839E839E839E839E839E839E841E8D9
:1057C00039E8420839C841E839E83A0839C8420995
:1057D00041E839C739C839C839C739C839E839E85B
:1057E00039E839C839E941E942094A2A528D949386
:1057F000FFFFFFFFFFFFFFFF7C3173AF738E632C52
:1058000052694A484A284A284A494A48630B632B46
:105810006B4B6B4C6B4C6B2C5AA95289526952489A
:105820005A89526852475A27624662246220B4421B
:10583000EDC6FE24FE02FDE0FE00FDE0FDE0F5C049
:10584000F5E0F5E0F5C0F5C0F5C0EDA0ED80E56050
:10585000DD40DD00D4C0D4C0D4C0CC80B3E241412F
:105860004184418539A539C539C639A531A639865E
:1058700031853185318631853186318531A652A910
:105880004227630B4A487BAD738C6B6C6B4B632B6D
:10589000630A6B6C318631C6318629652985296595
:1058A00031A63186296529452985298529862986B4
:1058B000318631A74229422A420A424A42293A29DC
:1058C000422A422A39E93A09422942093A093A095F
:1058D0003A0842293A0942093A093A083A083A0884
:1058E00041E8630C422842086B6D39E7420839E70A
:1058F00041E839E839E839E8420939E839E839E86E
:1059000039E839E839E839E839E839E839E839C8AF
:1059100039C839E839C739C839C839E839C839E820
:1059200041E839C839E8420842294A4A738E73AFC0
:105930008452AD9673F073EF7BAE738D736C6B2CEA
:1059400052694A484A084A2842074A69632B6B8CC5
:105950007C2F8CB26BAD6B6D5AC95A885247522856
:105960005A285A066A21C485FE45FE62FE60FE4042
:10597000FE60FE40FE40FE60FE60FE60FE40FE40B7
:10598000FE40FE40FE20FDE0FDE0FDE0F5E0F5C05C
:10599000EDA0EDA0E560E540DD20D500D4C0CCA1B0
:1059A000BC439B6359C341C439A441A539A539A659
:1059B00039A5398531A6318539A6318531855AA970
:1059C00052886B6C42066B6B7BCD73AC7BCD5AE916
:1059D000632A3185298631A631A629653186296554
:1059E00031A62986318629652185296631A7318628
:1059F000296629863A293A09422A3A093A093A098E
:105A0000422A42293A09422A3A093A0939E93A0925
:105A10003A093A0939E839E839E94209422942099B
:105A20004209634C52AA4A49630C39E742084208CA
:105A3000420839E839E839E83A0839E839E839E814
:105A400039E839C839C839E839E839E839C839E8AE
:105A500039C839E839C839C839C839C841E84209AC
:105A600041E8420841E9420942094A29736D7B8DA8
:105A70007BAE7BAF73AE736D736D736C736C6B4B7E
:105A8000526852685247522752475268630B6B8DD7
:105A900073EFDF3DAD9673AF62EA5AA862675A03AF
:105AA000A3A4EDE5FE61FE80FEA0FEA0FE80FEA0A8
:105AB000FE80FE80FE80FE80FE80FE60FE60FE6056
:105AC000FE60FE40FE40FE20FE20FE20FDE0FE00C7
:105AD000F5E0F5C0EDA0ED80E560DD40DD20D5000E
